{
  "_format": "hh-sol-artifact-1",
  "contractName": "TxRegistry",
  "sourceName": "contracts/TxRegistry.sol",
  "abi": [
    {
      "anonymous": false,
      "inputs": [
        {
          "indexed": false,
          "internalType": "bytes32",
          "name": "decisionId",
          "type": "bytes32"
        },
        {
          "indexed": false,
          "internalType": "bytes32",
          "name": "txRefHash",
          "type": "bytes32"
        },
        {
          "indexed": false,
          "internalType": "uint256",
          "name": "ts",
          "type": "uint256"
        }
      ],
      "name": "SecureTx",
      "type": "event"
    },
    {
      "inputs": [
        {
          "internalType": "bytes32",
          "name": "decisionId",
          "type": "bytes32"
        },
        {
          "internalType": "bytes32",
          "name": "txRefHash",
          "type": "bytes32"
        }
      ],
      "name": "registerSecureTx",
      "outputs": [],
      "stateMutability": "nonpayable",
      "type": "function"
    }
  ],
  "bytecode": "0x608060405234801561001057600080fd5b5061019b806100206000396000f3fe608060405234801561001057600080fd5b506004361061002b5760003560e01c80630d3e4e3c14610030575b600080fd5b61004a600480360381019061004591906100c6565b61004c565b005b7fb14169d1d3fabf6a29aecba4b1d3a01b8b9a7929c40109edcde86520697bb7e982824260405161007f9392919061012e565b60405180910390a15050565b600080fd5b6000819050919050565b6100a381610090565b81146100ae57600080fd5b50565b6000813590506100c08161009a565b92915050565b600080604083850312156100dd576100dc61008b565b5b60006100eb858286016100b1565b92505060206100fc858286016100b1565b9150509250929050565b61010f81610090565b82525050565b6000819050919050565b61012881610115565b82525050565b60006060820190506101436000830186610106565b6101506020830185610106565b61015d604083018461011f565b94935050505056fea2646970667358221220fff062a1d3879e920ac8b892e771cfdb3717b35928fd88b6e92d10d3ac94974f64736f6c63430008140033",
  "linkReferences": {},
  "deployedLinkReferences": {}
}