{"contracts/TxRegistry.sol":{"TxRegistry":{"abi":[{"anonymous":false,"inputs":[{"indexed":false,"internalType":"bytes32","name":"decisionId","type":"bytes32"},{"indexed":false,"internalType":"bytes32","name":"txRefHash","type":"bytes32"},{"indexed":false,"internalType":"uint256","name":"ts","type":"uint256"}],"name":"SecureTx","type":"event"},{"inputs":[{"internalType":"bytes32","name":"decisionId","type":"bytes32"},{"internalType":"bytes32","name":"txRefHash","type":"bytes32"}],"name":"registerSecureTx","outputs":[],"stateMutability":"nonpayable","type":"function"}],"evm":{"bytecode":{"linkReferences":{},"object":"608060405234801561001057600080fd5b5061019b806100206000396000f3fe608060405234801561001057600080fd5b506004361061002b5760003560e01c80630d3e4e3c14610030575b600080fd5b61004a600480360381019061004591906100c6565b61004c565b005b7fb14169d1d3fabf6a29aecba4b1d3a01b8b9a7929c40109edcde86520697bb7e982824260405161007f9392919061012e565b60405180910390a15050565b600080fd5b6000819050919050565b6100a381610090565b81146100ae57600080fd5b50565b6000813590506100c08161009a565b92915050565b600080604083850312156100dd576100dc61008b565b5b60006100eb858286016100b1565b92505060206100fc858286016100b1565b9150509250929050565b61010f81610090565b82525050565b6000819050919050565b61012881610115565b82525050565b60006060820190506101436000830186610106565b6101506020830185610106565b61015d604083018461011f565b94935050505056fea2646970667358221220fff062a1d3879e920ac8b892e771cfdb3717b35928fd88b6e92d10d3ac94974f64736f6c63430008140033","opcodes":"PUSH1 0x80 PUSH1 0x40 MSTORE CALLVALUE DUP1 ISZERO PUSH2 0x10 JUMPI PUSH1 0x0 DUP1 REVERT JUMPDEST POP PUSH2 0x19B DUP1 PUSH2 0x20 PUSH1 0x0 CODECOPY PUSH1 0x0 RETURN INVALID PUSH1 0x80 PUSH1 0x40 MSTORE CALLVALUE DUP1 ISZERO PUSH2 0x10 JUMPI PUSH1 0x0 DUP1 REVERT JUMPDEST POP PUSH1 0x4 CALLDATASIZE LT PUSH2 0x2B JUMPI PUSH1 0x0 CALLDATALOAD PUSH1 0xE0 SHR DUP1 PUSH4 0xD3E4E3C EQ PUSH2 0x30 JUMPI JUMPDEST PUSH1 0x0 DUP1 REVERT JUMPDEST PUSH2 0x4A PUSH1 0x4 DUP1 CALLDATASIZE SUB DUP2 ADD SWAP1 PUSH2 0x45 SWAP2 SWAP1 PUSH2 0xC6 JUMP JUMPDEST PUSH2 0x4C JUMP JUMPDEST STOP JUMPDEST PUSH32 0xB14169D1D3FABF6A29AECBA4B1D3A01B8B9A7929C40109EDCDE86520697BB7E9 DUP3 DUP3 TIMESTAMP PUSH1 0x40 MLOAD PUSH2 0x7F SWAP4 SWAP3 SWAP2 SWAP1 PUSH2 0x12E JUMP JUMPDEST PUSH1 0x40 MLOAD DUP1 SWAP2 SUB SWAP1 LOG1 POP POP JUMP JUMPDEST PUSH1 0x0 DUP1 REVERT JUMPDEST PUSH1 0x0 DUP2 SWAP1 POP SWAP2 SWAP1 POP JUMP JUMPDEST PUSH2 0xA3 DUP2 PUSH2 0x90 JUMP JUMPDEST DUP2 EQ PUSH2 0xAE JUMPI PUSH1 0x0 DUP1 REVERT JUMPDEST POP JUMP JUMPDEST PUSH1 0x0 DUP2 CALLDATALOAD SWAP1 POP PUSH2 0xC0 DUP2 PUSH2 0x9A JUMP JUMPDEST SWAP3 SWAP2 POP POP JUMP JUMPDEST PUSH1 0x0 DUP1 PUSH1 0x40 DUP4 DUP6 SUB SLT ISZERO PUSH2 0xDD JUMPI PUSH2 0xDC PUSH2 0x8B JUMP JUMPDEST JUMPDEST PUSH1 0x0 PUSH2 0xEB DUP6 DUP3 DUP7 ADD PUSH2 0xB1 JUMP JUMPDEST SWAP3 POP POP PUSH1 0x20 PUSH2 0xFC DUP6 DUP3 DUP7 ADD PUSH2 0xB1 JUMP JUMPDEST SWAP2 POP POP SWAP3 POP SWAP3 SWAP1 POP JUMP JUMPDEST PUSH2 0x10F DUP2 PUSH2 0x90 JUMP JUMPDEST DUP3 MSTORE POP POP JUMP JUMPDEST PUSH1 0x0 DUP2 SWAP1 POP SWAP2 SWAP1 POP JUMP JUMPDEST PUSH2 0x128 DUP2 PUSH2 0x115 JUMP JUMPDEST DUP3 MSTORE POP POP JUMP JUMPDEST PUSH1 0x0 PUSH1 0x60 DUP3 ADD SWAP1 POP PUSH2 0x143 PUSH1 0x0 DUP4 ADD DUP7 PUSH2 0x106 JUMP JUMPDEST PUSH2 0x150 PUSH1 0x20 DUP4 ADD DUP6 PUSH2 0x106 JUMP JUMPDEST PUSH2 0x15D PUSH1 0x40 DUP4 ADD DUP5 PUSH2 0x11F JUMP JUMPDEST SWAP5 SWAP4 POP POP POP POP JUMP INVALID LOG2 PUSH5 0x6970667358 0x22 SLT KECCAK256 SELFDESTRUCT CREATE PUSH3 0xA1D387 SWAP15 SWAP3 EXP 0xC8 0xB8 SWAP3 0xE7 PUSH18 0xCFDB3717B35928FD88B6E92D10D3AC94974F PUSH5 0x736F6C6343 STOP ADDMOD EQ STOP CALLER "},"methodIdentifiers":{"registerSecureTx(bytes32,bytes32)":"0d3e4e3c"}}}}}